:020000040800F2
:10000000005000200D9C000841150008FB0100086D
:1000100043150008451500084715000800000000BA
:10002000000000000000000000000000491500086A
:100030004B150008000000007F010008A916000809
:10004000559C0008559C0008559C0008559C0008CC
:10005000559C0008559C0008559C0008559C0008BC
:10006000559C0008559C0008559C0008559C0008AC
:10007000559C0008E5260008F1370008559C00084B
:10008000559C0008D5240008559C0008559C000884
:100090004D150008559C0008559C0008559C00080B
:1000A000559C0008559C0008559C0008559C00086C
:1000B000559C0008559C0008559C0008559C00085C
:1000C000559C0008559C0008559C0008559C00084C
:1000D000559C00089D370008559C0008559C000859
:1000E000559C0008559C0008559C00080000000025
:1000F0000000000000000000000000000000000000
:0C01000000000000000000005FF808F1A3
:1001100010B5054C237833B9044B13B10448AFF341
:1001200000800123237010BD0002002000000000A9
:10013000189D000808B5034B1BB103490348AFF3F2
:10014000008008BD0000000004020020189D000887
:10015000EFF3108072B6704780F310887047364A0C
:100160001368012B04D04FF001031360334A106071
:10017000334A116033484FF0805101607047EFF30C
:10018000108272B62C48016891B14FF000010160F5
:100190002A48016829B1EFF3098121E9F00F0068CD
:1001A0000160274909680968B1E8F00F81F30988FF
:1001B00082F310884EF0040E7047214908601F49F1
:1001C0004FF0000008601C494FF0010008601E4815
:1001D0004FF47F01D0F8002041EA02010160194884
:1001E0004FF08051016019480068006800BF80F33B
:1001F000088861B662B6704700BFEFF308801EF052
:10020000040F01D0EFF3098020E9F00F40F804ED6E
:100210001EF0040F02D080F3098801E080F3088803
:1002200000B504F0C1FD5DF804EB4EF0040E70471C
:10023000EFF3058070470000643300206033002036
:100240005C33002004ED00E020ED00E008ED00E06C
:10025000034613F8012B002AFBD1181A0138704706
:1002600081F0004102E000BF83F0004330B54FEA67
:1002700041044FEA430594EA050F08BF90EA020FD4
:100280001FBF54EA000C55EA020C7FEA645C7FEA67
:10029000655C00F0E2804FEA5454D4EB5555B8BF8A
:1002A0006D420CDD2C4480EA020281EA030382EAFB
:1002B000000083EA010180EA020281EA0303362D8D
:1002C00088BF30BD11F0004F4FEA01314FF4801C60
:1002D0004CEA113102D0404261EB410113F0004F72
:1002E0004FEA03334CEA133302D0524263EB430329
:1002F00094EA050F00F0A780A4F10104D5F1200EC7
:100300000DDB02FA0EFC22FA05F2801841F1000121
:1003100003FA0EF2801843FA05F359410EE0A5F1F5
:1003200020050EF1200E012A03FA0EFC28BF4CF026
:10033000020C43FA05F3C01851EBE37101F00045DC
:1003400007D54FF0000EDCF1000C7EEB00006EEBE9
:100350000101B1F5801F1BD3B1F5001F0CD3490873
:100360005FEA30004FEA3C0C04F101044FEA4452CA
:1003700012F5800F80F09A80BCF1004F08BF5FEA51
:10038000500C50F1000041EB045141EA050130BD31
:100390005FEA4C0C404141EB0101013C28BFB1F543
:1003A000801FE9D291F0000F04BF01460020B1FA8E
:1003B00081F308BF2033A3F10B03B3F120020CDA61
:1003C0000C3208DD02F1140CC2F10C0201FA0CF03F
:1003D00021FA02F10CE002F11402D8BFC2F1200CA4
:1003E00001FA02F120FA0CFCDCBF41EA0C0190405A
:1003F000E41AA2BF01EB0451294330BD6FEA0404A3
:100400001F3C1CDA0C340EDC04F11404C4F120028D
:1004100020FA04F001FA02F340EA030021FA04F39F
:1004200045EA030130BDC4F10C04C4F1200220FAF6
:1004300002F001FA04F340EA0300294630BD21FA34
:1004400004F0294630BD94F0000F83F4801306BFFA
:1004500081F480110134013D4EE77FEA645C18BFEE
:100460007FEA655C29D094EA050F08BF90EA020F85
:1004700005D054EA000C04BF1946104630BD91EA7D
:10048000030F1EBF0021002030BD5FEA545C05D180
:100490004000494128BF41F0004130BD14F58004BF
:1004A0003CBF01F5801130BD01F0004545F0FE4133
:1004B00041F470014FF0000030BD7FEA645C1ABF68
:1004C000194610467FEA655C1CBF0B46024650EA9F
:1004D000013406BF52EA033591EA030F41F40021CB
:1004E00030BD00BF90F0000F04BF0021704730B551
:1004F0004FF4806404F132044FF000054FF0000126
:1005000050E700BF90F0000F04BF0021704730B5E6
:100510004FF4806404F1320410F0004548BF4042BB
:100520004FF000013EE700BF42004FEAE2014FEA10
:1005300031014FEA02701FBF12F07F4393F07F4FEB
:1005400081F06051704732F07F4208BF704793F0EE
:100550007F4F04BF41F40021704730B54FF4607401
:1005600001F0004521F000411CE700BF50EA010204
:1005700008BF704730B54FF000050AE050EA0102AD
:1005800008BF704730B511F0004502D5404261EB1D
:1005900041014FF4806404F132045FEA915C3FF45E
:1005A000D8AE4FF003025FEADC0C18BF03325FEAFB
:1005B000DC0C18BF033202EBDC02C2F1200300FAAC
:1005C00003FC20FA02F001FA03FE40EA0E0021FAD1
:1005D00002F11444BDE600BF70B54FF0FF0C4CF4BF
:1005E000E06C1CEA11541DBF1CEA135594EA0C0F71
:1005F00095EA0C0F00F0DEF82C4481EA030621EAAC
:100600004C5123EA4C5350EA013518BF52EA0335E6
:1006100041F4801143F4801338D0A0FB02CE4FF098
:100620000005E1FB02E506F00042E0FB03E54FF0C8
:100630000006E1FB03569CF0000F18BF4EF0010EC0
:10064000A4F1FF04B6F5007F64F5407404D25FEABC
:100650004E0E6D4146EB060642EAC62141EA55516F
:100660004FEAC52040EA5E504FEACE2EB4F1FD0CB1
:1006700088BFBCF5E06F1ED8BEF1004F08BF5FEA2F
:10068000500E50F1000041EB045170BD06F00046E1
:1006900046EA010140EA020081EA0301B4EB5C048E
:1006A000C2BFD4EB0C0541EA045170BD41F4801186
:1006B0004FF0000E013C00F3AB8014F1360FDEBFAB
:1006C000002001F0004170BDC4F10004203C35DA87
:1006D0000C341BDC04F11404C4F1200500FA05F30A
:1006E00020FA04F001FA05F240EA020001F00042AB
:1006F00021F0004110EBD37021FA04F642EB060121
:100700005EEA430E08BF20EAD37070BDC4F10C044A
:10071000C4F1200500FA04F320FA05F001FA04F20E
:1007200040EA020001F0004110EBD37041F10001FA
:100730005EEA430E08BF20EAD37070BDC4F1200505
:1007400000FA05F24EEA020E20FA04F301FA05F26D
:1007500043EA020321FA04F001F0004121FA04F215
:1007600020EA020000EBD3705EEA430E08BF20EAE5
:10077000D37070BD94F0000F0FD101F0004640001F
:1007800041EB010111F4801F08BF013CF7D041EAA1
:10079000060195F0000F18BF704703F000465200A5
:1007A00043EB030313F4801F08BF013DF7D043EA76
:1007B0000603704794EA0C0F0CEA135518BF95EA2C
:1007C0000C0F0CD050EA410618BF52EA4306D1D1B3
:1007D00081EA030101F000414FF0000070BD50EAD2
:1007E000410606BF1046194652EA430619D094EA5C
:1007F0000C0F02D150EA013613D195EA0C0F05D146
:1008000052EA03361CBF104619460AD181EA030199
:1008100001F0004141F0FE4141F470014FF0000051
:1008200070BD41F0FE4141F4780170BD70B54FF0EC
:10083000FF0C4CF4E06C1CEA11541DBF1CEA13556C
:1008400094EA0C0F95EA0C0F00F0A7F8A4EB05044E
:1008500081EA030E52EA03354FEA013100F0888045
:100860004FEA03334FF0805545EA131343EA12630E
:100870004FEA022245EA111545EA10654FEA0026C3
:100880000EF000419D4208BF964244F1FD0404F57C
:10089000407402D25B084FEA3202B61A65EB0305D8
:1008A0005B084FEA32024FF480104FF4002CB6EB95
:1008B000020E75EB030E22BFB61A754640EA0C0015
:1008C0005B084FEA3202B6EB020E75EB030E22BF55
:1008D000B61A754640EA5C005B084FEA3202B6EB96
:1008E000020E75EB030E22BFB61A754640EA9C0055
:1008F0005B084FEA3202B6EB020E75EB030E22BF25
:10090000B61A754640EADC0055EA060E18D04FEAE2
:10091000051545EA16754FEA06164FEAC30343EA82
:1009200052734FEAC2025FEA1C1CC0D111F4801F4F
:100930000BD141EA00014FF000004FF0004CB6E748
:1009400011F4801F04BF01430020B4F1FD0C88BFE7
:10095000BCF5E06F3FF6AFAEB5EB030C04BFB6EBF2
:10096000020C5FEA500C50F1000041EB045170BDE5
:100970000EF0004E4EEA113114EB5C04C2BFD4EB12
:100980000C0541EA045170BD41F480114FF0000E96
:10099000013C90E645EA060E8DE60CEA135594EA12
:1009A0000C0F08BF95EA0C0F3FF43BAF94EA0C0F15
:1009B0000AD150EA01347FF434AF95EA0C0F7FF48A
:1009C00025AF104619462CE795EA0C0F06D152EADE
:1009D00003353FF4FDAE1046194622E750EA4106C2
:1009E00018BF52EA43067FF4C5AE50EA41047FF4D3
:1009F0000DAF52EA43057FF4EBAE12E74FEA410236
:100A000012F5001215D211D56FF47873B3EB625260
:100A100012D94FEAC12343F0004343EA505311F087
:100A2000004F23FA02F018BF404270474FF0000019
:100A3000704750EA013005D111F0004008BF6FF057
:100A4000004070474FF00000704700BF4A0011D2CD
:100A500012F5001211D20DD56FF47873B3EB625218
:100A60000ED44FEAC12343F0004343EA505323FA24
:100A700002F070474FF00000704750EA013002D199
:100A80004FF0FF3070474FF0000070474FEA4102CF
:100A9000B2F1E04324BFB3F5001CDCF1FE5C0DD9DC
:100AA00001F0004C4FEAC0024CEA5070B2F1004F26
:100AB00040EB830008BF20F00100704711F0804F29
:100AC00021D113F13872BCBF01F00040704741F4EE
:100AD00080114FEA5252C2F11802C2F1200C10FAF2
:100AE0000CF320FA02F018BF40F001004FEAC123D6
:100AF0004FEAD32303FA0CFC40EA0C0023FA02F37A
:100B00004FEA4303CCE77FEA625307D150EA01334F
:100B10001EBF4FF0FE4040F44000704701F000401F
:100B200040F0FE4040F40000704700BF80F00040FD
:100B300002E000BF81F0004142001FBF5FEA4103B5
:100B400092EA030F7FEA226C7FEA236C6AD04FEAB5
:100B50001262D2EB1363C1BFD218414048404140FA
:100B6000B8BF5B42192B88BF704710F0004F40F4AC
:100B7000000020F07F4018BF404211F0004F41F4C8
:100B8000000121F07F4118BF494292EA030F3FD094
:100B9000A2F1010241FA03FC10EB0C00C3F12003A7
:100BA00001FA03F100F0004302D5494260EB400036
:100BB000B0F5000F13D3B0F1807F06D340084FEAA1
:100BC000310102F10102FE2A51D2B1F1004F40EB96
:100BD000C25008BF20F0010040EA030070474900FE
:100BE00040EB0000013A28BFB0F5000FEDD2B0FA9B
:100BF00080FCACF1080CB2EB0C0200FA0CF0AABFBE
:100C000000EBC25052421843BCBFD040184370475B
:100C100092F0000F81F4000106BF80F40000013261
:100C2000013BB5E74FEA41037FEA226C18BF7FEA38
:100C3000236C21D092EA030F04D092F0000F08BF7A
:100C40000846704790EA010F1CBF0020704712F061
:100C50007F4F04D1400028BF40F00040704712F1A0
:100C600000723CBF00F50000704700F0004343F005
:100C7000FE4040F4000070477FEA226216BF08463B
:100C80007FEA23630146420206BF5FEA412390EAFE
:100C9000010F40F4800070474FF0000304E000BFF4
:100CA00010F0004348BF40425FEA000C08BF7047A5
:100CB00043F0964301464FF000001CE050EA010269
:100CC00008BF70474FF000030AE000BF50EA01027E
:100CD00008BF704711F0004302D5404261EB41016B
:100CE0005FEA010C02BF84460146002043F0B64390
:100CF00008BFA3F18053A3F50003BCFA8CF2083AB5
:100D0000A3EBC25310DB01FA02FC634400FA02FCBD
:100D1000C2F12002BCF1004F20FA02F243EB0200C4
:100D200008BF20F00100704702F1200201FA02FC26
:100D3000C2F1200250EA4C0021FA02F243EB020019
:100D400008BF20EADC7070474FF0FF0C1CEAD0525D
:100D50001EBF1CEAD15392EA0C0F93EA0C0F6FD01E
:100D60001A4480EA010C400218BF5FEA41211ED0FC
:100D70004FF0006343EA501043EA5111A0FB0131E8
:100D80000CF00040B1F5000F3EBF490041EAD371BD
:100D90005B0040EA010062F17F02FD2A1DD8B3F139
:100DA000004F40EBC25008BF20F00100704790F0A8
:100DB000000F0CF0004C08BF49024CEA502040EAFA
:100DC00051207F3AC2BFD2F1FF0340EAC2507047C0
:100DD00040F400004FF00003013A5DDC12F1190FFE
:100DE000DCBF00F000407047C2F10002410021FA70
:100DF00002F1C2F1200200FA02FC5FEA310040F188
:100E0000000053EA4C0308BF20EADC70704792F000
:100E1000000F00F0004C02BF400010F4000F013A38
:100E2000F9D040EA0C0093F0000F01F0004C02BF33
:100E3000490011F4000F013BF9D041EA0C018FE7A2
:100E40000CEAD15392EA0C0F18BF93EA0C0F0AD0A8
:100E500030F0004C18BF31F0004CD8D180EA0100CE
:100E600000F00040704790F0000F17BF90F0004F67
:100E7000084691F0000F91F0004F14D092EA0C0F49
:100E800001D142020FD193EA0C0F03D14B0218BFDC
:100E9000084608D180EA010000F0004040F0FE4022
:100EA00040F40000704740F0FE4040F440007047BE
:100EB0004FF0FF0C1CEAD0521EBF1CEAD15392EA3D
:100EC0000C0F93EA0C0F69D0A2EB030280EA010C2D
:100ED00049024FEA402037D04FF0805343EA1111C6
:100EE00043EA10130CF000408B4238BF5B0042F124
:100EF0007D024FF4000C8B4224BF5B1A40EA0C00C9
:100F0000B3EB510F24BFA3EB510340EA5C00B3EBFA
:100F1000910F24BFA3EB910340EA9C00B3EBD10FE8
:100F200024BFA3EBD10340EADC001B0118BF5FEA3A
:100F30001C1CE0D1FD2A3FF650AF8B4240EBC25063
:100F400008BF20F0010070470CF0004C4CEA502024
:100F50007F32C2BFD2F1FF0340EAC250704740F473
:100F600000004FF00003013A37E792F0000F00F065
:100F7000004C02BF400010F4000F013AF9D040EAE3
:100F80000C0093F0000F01F0004C02BF490011F477
:100F9000000F013BF9D041EA0C0195E70CEAD1536F
:100FA00092EA0C0F08D142027FF47DAF93EA0C0F56
:100FB0007FF470AF084676E793EA0C0F04D14B023A
:100FC0003FF44CAF08466EE730F0004C18BF31F0EC
:100FD000004CCAD130F000427FF45CAF31F00043E6
:100FE0007FF43CAF5FE700BF4FF0FF3C06E000BF7F
:100FF0004FF0010C02E000BF4FF0010C4DF804CDA2
:101000004FEA40024FEA41037FEA226C18BF7FEAB1
:10101000236C11D001B052EA530C18BF90EA010FB3
:1010200058BFB2EB030088BFC81738BF6FEAE17042
:1010300018BF40F0010070477FEA226C02D15FEADE
:10104000402C05D17FEA236CE4D15FEA412CE1D04A
:101050005DF8040B704700BF844608466146FFE711
:101060000FB5FFF7C9FF002848BF10F1000F0FBDF3
:101070004DF808EDFFF7F4FF0CBF012000205DF8EC
:1010800008FB00BF4DF808EDFFF7EAFF34BF012071
:1010900000205DF808FB00BF4DF808EDFFF7E0FF0A
:1010A00094BF012000205DF808FB00BF4DF808ED5B
:1010B000FFF7D2FF94BF012000205DF808FB00BFBE
:1010C0004DF808EDFFF7C8FF34BF012000205DF8A0
:1010D00008FB00BF42000ED2B2F1FE4F0BD34FF01F
:1010E0009E03B3EB126209D44FEA002343F000439E
:1010F00023FA02F070474FF00000704712F1610FC1
:1011000001D1420202D14FF0FF3070474FF0000092
:10111000704700BF30B587B000F0F2FD00F0B8FFB7
:1011200000F072FF00F04EFE00F084FC124B9A6952
:1011300042F004029A619B6903F004030193019B4E
:101140004FF48055029501230393049303230593E1
:101150000A4C02A9204605F02FFF0022294620460E
:1011600006F03AF84FF4FA7005F0A2FA02F09AFA93
:10117000002007B030BD00BF001002400008014051
:101180007047000082B00E4B9A6942F001029A61EA
:101190009A6902F001020092009ADA6942F08052E4
:1011A000DA61DB6903F080530193019B054A5368C0
:1011B00023F0E06343F00073536002B0704700BF58
:1011C00000100240000001402DE9F0438DB00023E3
:1011D000089309930A930B930368714A934209D0C9
:1011E000704A934263D0704A934200F0A3800DB0DE
:1011F000BDE8F08304466D4B9A6942F004029A619F
:101200009A6902F004020192019A9A6942F48042BA
:101210009A619A6902F480420292029A5A6942F0F3
:1012200001025A615B6903F001030393039B4FF4CE
:10123000007308934FF00208CDF824804FF00109A5
:10124000CDF8289003270B97594D08A9284605F09B
:10125000B3FE4FF48063089300260996CDF82890DA
:101260000B9708A9284605F0A7FE524D524B2B605C
:1012700010236B60AE608023EB602E616E61AE6107
:10128000EE61284605F02AFC25636C620422314693
:101290000E2005F0CDFB0E2005F0FCFB3A46414642
:1012A000252005F0C5FB252005F0F4FB9FE73F4B0B
:1012B0009A6942F004029A619A6902F00402049267
:1012C000049ADA6942F40032DA61DB6903F400332C
:1012D0000593059B042308930227099701260A9684
:1012E00003240B94324D08A9284605F065FE082317
:1012F0000893002309930A960B9408A9284605F041
:101300005BFE4FF48078CDF8208009960A970B9405
:1013100008A9284605F050FE32464146284605F009
:101320005BFF22463946262005F082FB262005F089
:10133000B1FB5CE71D4B9A6942F008029A619A6919
:1013400002F008020692069ADA6942F48022DA6113
:10135000DB6903F480230793079B4FF480630893B2
:101360000224099401270A9703260B96134D08A916
:10137000284605F021FE4FF40063089300230993EB
:101380000A970B9608A9284605F016FE0422214666
:10139000272005F04DFB272005F07CFB27E700BF49
:1013A0000038014000440040004800400010024066
:1013B000000801406002002044000240000C01408F
:1013C0002DE9F04788B00023049305930693079313
:1013D00002683D4B9A4202D008B0BDE8F08704464F
:1013E00003F560439A6942F008029A619A6902F033
:1013F00008020092009A9A6942F004029A619A697E
:1014000002F004020192019A9A6942F480529A61B0
:101410009A6902F480520292029A5A6942F00102D9
:101420005A615B6903F001030393039BA0230493B8
:10143000032607964FF00208CDF814800125069583
:10144000224F04A9384605F0B7FD4FF4407ACDF895
:1014500010A0059507960695DFF87C9004A94846EC
:1014600005F0AAFD2A465146484605F0B5FE4FF460
:101470000049CDF8109005950796069504A93846C1
:1014800005F09AFD2A464946384605F0A5FE104D5E
:10149000104B2B6010236B600023AB608022EA604E
:1014A0002B616B61AB614FF40053EB61284605F093
:1014B00015FBA5646C62324641460D2005F0B8FA72
:1014C0000D2005F0E7FA87E70030014000080140F1
:1014D0001C02002030000240000C014000B587B023
:1014E000002302930393049305930268124B9A42DC
:1014F00002D007B05DF804FB03F5DE33DA6942F48D
:101500000012DA61DA6902F400120092009A9A6914
:1015100042F008029A619B6903F008030193019B62
:10152000C0230293122303930323059302A90348C4
:1015300005F042FDDDE700BF00540040000C014013
:101540007047FEE7FEE7FEE77047704708B504F016
:1015500059F8034806F0A2FC04F062F808BD00BF89
:10156000E82600200F4B1A6842F001021A60596801
:101570000D4A0A405A601A6822F0847222F48032BE
:101580001A601A6822F480221A605A6822F4FE0255
:101590005A604FF41F029A60044B4FF000629A6049
:1015A000704700BF001002400000FFF800ED00E0AF
:1015B00030B595B000240D940F94059406940794CB
:1015C00008940994019402940394049409230A93BF
:1015D0004FF480330B930C9401220E92109202254B
:1015E000119512934FF4E01313930AA806F050FFDD
:1015F0000F230593069507944FF48063089309948D
:10160000294605A807F090F9132301934FF40073BE
:1016100002934FF400430393049401A807F05CFA8B
:1016200015B030BD00487047A40200200048704744
:10163000A412002010B505F0C5F9174B1B68174A16
:10164000A2FB03239B09013BB3F1807F0BD2144A19
:101650001360144BFF221A70A3F60B5300221A607A
:10166000083B07221A60FFF7A3FF4FF4E13002F0B6
:101670003FF84FF4E13002F075F801F005F803F09F
:1016800079FDFFF7CFFF0446FFF7D0FF0146204664
:1016900004F0E4FB10BD00BF00000020D34D621039
:1016A00014E000E023ED00E008B503F0ABFF05F027
:1016B0009BF903F023FD03F0B3FF08BD0000000019
:1016C0002DE9F04F89B0802000F0CEFBC64FDFF847
:1016D00060A3C64E87E04046FEF726FF0022C44BBB
:1016E000FFF7A4F8BAA3D3E90023FEF7BFFD8046B5
:1016F0008946FFF783F90FFA80FB5846FEF702FF91
:1017000002460B4640464946FEF7AEFDB2A3D3E97A
:101710000023FEF761FFFFF799F903465A46B549E2
:10172000684604F0E3FAA6E005F10048B24928460D
:10173000FFF7C6FC002800F022814046FEF7F4FEC9
:10174000A7A3D3E90023FEF791FD80468946FFF762
:1017500055F905B22846FEF7D5FE02460B4640462F
:101760004946FEF781FD0022A44BFEF735FFFFF747
:101770006DF903462A46A249684604F0B7FA69465D
:10178000A04802F00EFB31462046FFF77BFC002804
:1017900000F0AA802046FEF7C7FE91A3D3E90023FC
:1017A000FEF764FD80468946FFF728F904B220461B
:1017B000FEF7A8FE02460B4640464946FEF754FD9A
:1017C00000228E4BFEF708FFFFF740F90346224642
:1017D0008D49684604F08AFA69468C4802F0E1FABD
:1017E000642004F065FF802000F07EFB80468020AE
:1017F00000F0A0FB0546802000F0C4FB0446014633
:101800003846FFF797F95146FFF79EFA8049FFF7F0
:101810004FFB8049FFF790F9FFF75CFC80B200F0C6
:101820002DFC31464046FFF72DFC00283FF453AF16
:101830004046FEF779FE6AA3D3E90023FEF716FDC2
:1018400080468946FFF7DAF80FFA80FB5846FEF724
:1018500059FE02460B4640464946FEF705FD00226A
:10186000664BFEF7B9FEFFF7F1F803465A466A49A0
:10187000684604F03BFA6946684802F092FA002193
:101880002846FFF7FFFB00287FF44EAF314628467D
:10189000FFF7F8FB00284FD12846FEF745FE00224F
:1018A000534BFEF7C3FF4AA3D3E90023FEF7DEFC48
:1018B00080468946FFF7A2F805B22846FEF722FEC9
:1018C00002460B4640464946FEF7CEFC42A3D3E90A
:1018D0000023FEF781FEFFF7B9F803462A46504978
:1018E000684604F003FA4AE72046FEF71DFE002290
:1018F0003F4BFEF79BFF36A3D3E90023FEF7B6FC70
:1019000080468946FFF77AF804B22046FEF7FAFDD2
:1019100002460B4640464946FEF7A6FC2EA3D3E9F5
:101920000023FEF759FEFFF791F8034622463D4992
:10193000684604F0DBF94FE72846FEF7F5FD28A3DB
:10194000D3E90023FEF792FC80468946FFF756F85C
:1019500005B22846FEF7D6FD02460B4640464946EC
:10196000FEF782FC0022254BFEF736FEFFF76EF8ED
:1019700003462A462C49684604F0B8F9FFE640467B
:10198000FEF7D2FD00221A4BFEF750FF10A3D3E959
:101990000023FEF76BFC80468946FFF72FF805B25F
:1019A0002846FEF7AFFD02460B4640464946FEF785
:1019B0005BFC09A3D3E90023FEF70EFEFFF746F810
:1019C00003462A461949684604F090F9D7E600BF55
:1019D0002D431CEBE2360A3F000000000088C340A4
:1019E0007B14AE47E17A743F0050434700007A44CD
:1019F00000408F401C9E000800007AC4000059403F
:101A0000409E000810240020289E0008A8240020E2
:101A10000000FA4300004843109E0008682400209C
:101A2000689E0008349E0008509E00085C9E0008D6
:101A30000000904130B585B001F0BCFF002001F0FE
:101A4000E3FF2D4C2D49204602F07EF90A220021A9
:101A5000204602F08BF910228021204602F095F9F1
:101A6000274D2946204602F099F90021204601F031
:101A7000D5FF244C2449204602F066F91A220021A1
:101A8000204602F073F910228021204602F07DF9F1
:101A90002946204602F082F90021204601F0BEFFCF
:101AA0001A4C1B49204602F04FF92A2200212046F9
:101AB00002F05CF910228021204602F066F92946E6
:101AC000204602F06BF90021204601F0A7FF114CDF
:101AD00014230393022302934FF4007301930E4BDC
:101AE000009300230D4A0E49204604F0A9FC20462D
:101AF00004F008FE05B030BD682400202C2400202E
:101B00007C01002010240020F0230020A8240020C5
:101B1000D023002008250020A4120020C1160008B0
:101B2000749E000800F2FF31031D99420BD9012079
:101B30001A68B2F1FF3F07D0013080B204339942F6
:101B4000F6D800207047002070470000074B1A8825
:101B5000A3F580631B8823B9002A054808BF00202D
:101B60007047002A014818BF00207047000801088C
:101B70000004010870B505460E46FFF7E7FF00F5C3
:101B80007F73041DA3420BD31A88AA4204D0043BDE
:101B9000A342F9D2012002E05B883380002070BDAF
:101BA0000120FCE700B587B0002302930490059163
:101BB000019305F0E1F801A902A805F099F905F0F3
:101BC000F1F8019807B05DF804FB2DE9F0410646F5
:101BD0008846174605F0D0F8002F10DD4546002452
:101BE000A6EB08064FF001082A880023A9194046F1
:101BF00005F018F902350134A4B2BC42F4DB05F05B
:101C0000D1F8BDE8F081000010B582B00023ADF836
:101C10000630084C01212046FFF7C4FF0121064889
:101C2000FFF7C0FF01220DF106012046FFF7CDFFAF
:101C300002B010BD00040108000801082DE9F041C0
:101C400082B02B4B1B88002B3DD02A4B1B88294D83
:101C5000274A002B08BF1546174602F58062002B65
:101C600008BF174641F23423ADF806300023ADF823
:101C70000030ADF802302846FFF754FF1E4B1880A5
:101C800001220DF106012846FFF79FFF1B4C261D80
:101C9000DFF864800DF1020134F8020BFFF76AFFF0
:101CA000A0B1B442F6D101213846FFF77BFF0023F3
:101CB000ADF8063001220DF106012846FFF785FF39
:101CC00002B0BDE8F0810B4D094FCBE734F8023C80
:101CD000ADF80030B8F800000222694605EB80003C
:101CE000FFF773FFB8F800300133A8F80030D8E7E9
:101CF0000004010800080108A414002004000020CA
:101D000000B583B02C4B1B882C4A12886BB94FF658
:101D1000FF739A4204D041F234239A420DD136E047
:101D200001212648FFF73EFF09E04FF6FF718B4285
:101D30000FD041F234218B4223D0FFF765FFFFF72C
:101D400005FFFFF7EFFE1E4B188088B303B05DF868
:101D500004FB8AB141F234239A42EED10023ADF85C
:101D6000063001211448FFF71DFF01220DF1060185
:101D70001248FFF72AFFE2E701210F48FFF712FFA1
:101D8000DDE74FF6FF739A4204D0002AD5D1FFF762
:101D900055FFD4E70023ADF8063001210748FFF7CF
:101DA00001FF01220DF106010348FFF70EFFC6E710
:101DB000FFF744FFCAE700BF00040108000801085C
:101DC000A414002008B50B480B4B03600B4B436079
:101DD00000238360C3604FF48042026143618361EA
:101DE000C361036205F026FC00B908BDFFF7C8F91E
:101DF000FBE700BF8825002000540040A0860100BA
:101E000000B587B00B881A0A8DF814208DF81530AC
:101E10004FF47A7302930223019305AB00930123DD
:101E200000220146024805F0BDFC07B05DF804FB46
:101E30008825002000B587B00B0A8DF814308DF886
:101E400015104FF47A7302930223019305AB0093AC
:101E5000012305220146034805F0A4FC07B05DF804
:101E600004FB00BF8825002030B587B004461C4B1A
:101E70009A6942F008029A619B6903F00803009393
:101E8000009B4FF480530293002503950495032390
:101E9000059302A9134805F08FF89DF8043043F02C
:101EA0000703042262F3C5038DF80430BDF8043043
:101EB00062F38813ADF80430C3F3072303F0F10392
:101EC00065F3C7138DF805300DEB02012046FFF7CF
:101ED00097FF4FF400612046FFF7ACFF07B030BD1D
:101EE00000100240000C014000B587B001460023FD
:101EF000ADF814304FF47A7302930222019205ABCD
:101F000000930123094805F003FD9DF814009DF896
:101F1000153043EA0020FEF7F5FA0022044BFEF7E5
:101F20005BFBFEF7B3FD07B05DF804FB88250020DE
:101F30000000F43F00B587B001460023ADF814302F
:101F40004FF47A7302930223019305AB00930123AC
:101F500004220A4805F0DCFC9DF814309DF81500B9
:101F600040EA032000B2FEF7CDFA0022044BFEF750
:101F700033FBFEF78BFD07B05DF804FB88250020DE
:101F80000000D03F00B587B001460023ADF8143003
:101F90004FF47A7302930223019305AB009301235C
:101FA00003220A4805F0B4FC9DF814009DF8153092
:101FB00043EA0020FEF7A6FA0022054BFEF70CFBD1
:101FC000FEF764FD07B05DF804FB00BF8825002024
:101FD0000000194008B50A4D4FF40044094E012293
:101FE0002146284605F0F8F8322004F061FB002273
:101FF0002146284605F0F0F8308804F059FBEEE75A
:10200000000C01400800002000B58BB0154B9A6908
:1020100042F008029A619B6903F008030593059B4F
:102020004FF4004306930123079308930323099376
:1020300006A90D4804F0C0FF14230393052302935F
:102040009A230193094B00930023094A09490A483E
:1020500004F0F6F910B10BB05DF804FB064804F08B
:1020600051FBF8E700100240000C01402815002049
:10207000D51F00087C9E0008A8140020B0F5FA6F58
:1020800038BF4FF4FA60014B1880704708000020F9
:10209000F0B587B000231A46AC49AD4803F030F9DB
:1020A0000022AC49AC4803F0BEF9AC4E14230393B4
:1020B00004230293C8270197A94B00930023A94A40
:1020C000A949304604F0BCF9A84C01224FF4004164
:1020D000204605F081F800224FF40041204605F02B
:1020E0007BF8012004F0E4FA01224FF4004120467D
:1020F00005F072F89E4D00224FF40071284605F05D
:102100006BF800224FF48071284605F065F8AE2385
:102110008DF81730974C4FF47A7301220DF11701A7
:10212000204606F005FE02238DF817304FF47A732F
:1021300001220DF11701204606F0FAFD10238DF85B
:1021400017304FF47A7301220DF11701204606F083
:10215000EFFD40238DF817304FF47A7301220DF113
:102160001701204606F0E4FD81238DF817304FF467
:102170007A7301220DF11701204606F0D9FD3023B4
:102180008DF817304FF47A7301220DF117012046B4
:1021900006F0CEFDA1238DF817304FF47A7301229B
:1021A0000DF11701204606F0C3FD8DF817704FF4AE
:1021B0007A7301220DF11701204606F0B9FDA8231C
:1021C0008DF817304FF47A7301220DF11701204674
:1021D00006F0AEFD3F238DF817304FF47A730122DD
:1021E0000DF11701204606F0A3FDD3238DF817301B
:1021F0004FF47A7301220DF11701204606F098FD85
:1022000000238DF817304FF47A7301220DF1170176
:10221000204606F08DFDD5238DF817304FF47A73E4
:1022200001220DF11701204606F082FD80238DF872
:1022300017304FF47A7301220DF11701204606F092
:1022400077FDD9238DF817304FF47A7301220DF101
:102250001701204606F06CFD22238DF817304FF44D
:102260007A7301220DF11701204606F061FDDA2391
:102270008DF817304FF47A7301220DF117012046C3
:1022800006F056FD12238DF817304FF47A730122B1
:102290000DF11701204606F04BFDDB238DF81730BA
:1022A0004FF47A7301220DF11701204606F040FD2C
:1022B00035238DF817304FF47A7301220DF1170191
:1022C000204606F035FDAD238DF817304FF47A73B4
:1022D00001220DF11701204606F02AFD8B238DF80F
:1022E00017304FF47A7301220DF11701204606F0E2
:1022F0001FFD32238DF817304FF47A7301220DF150
:102300001701204606F014FDA4238DF817304FF472
:102310007A7301220DF11701204606F009FDA6236C
:102320008DF817304FF47A7301220DF11701204612
:1023300006F0FEFC01224FF40071284604F04CFF29
:10234000304604F0DFF907B0F0BD00BF809E000802
:10235000DC2500208C9E0008FC25002008160020AB
:1023600088160020F5230008989E00080008014008
:10237000000C01406823002030B583B004464FF0C4
:10238000FF31194803F063F8184D00224FF4007133
:10239000284604F021FF00224FF48071284604F003
:1023A0001BFFACB1AF238DF807304FF47A730122D5
:1023B0000DF107010E4806F0BBFC01224FF400713D
:1023C0000A4804F009FF084803F0D6F803B030BD0E
:1023D000AE238DF807304FF47A7301220DF1070117
:1023E000034806F0A5FCE8E7FC250020000C0140AE
:1023F000682300202DE9F04F83B0294B1B68ADF80E
:1024000004301B0C8DF806300120FFF7B5FFDFF814
:102410009CA04FF0FF37234E0BE001224FF40071D8
:10242000304604F0D9FE504603F0A6F80A2004F026
:102430003FF93946504603F00AF800224FF4007184
:10244000304604F0C9FE184DB0244FF48079DFF80F
:10245000608000224946304604F0BEFE8DF80440FC
:10246000032201A9404606F02BFDDFF848B03946AB
:10247000584602F055FF01224946304604F0ACFEB2
:1024800080222946404606F01BFD3946584602F098
:1024900047FF0134E4B28035B82CDAD1BDE700BF84
:1024A000A49E0008000C0140342F0020FC250020D1
:1024B00068230020DC25002008B50268034B9A42FF
:1024C00000D008BD024802F093FFFAE70030014057
:1024D000DC25002008B503F095F8034804F07EFBE6
:1024E00003F09EF808BD00BFC415002083886FF379
:1024F0004F0383806FF300030371C3886FF34F03AF
:10250000C3806FF300038371016022F00302028134
:1025100070478388C3F34E03C288C2F34E029342CE
:1025200005D00FD3B0F908009B1AC01A7047027982
:10253000837902F0010203F001039A4204D0B0F95A
:1025400008007047D01A7047002070472DE9F0410D
:1025500005460F469046B0F90860FFF7DAFF341AD7
:10256000A4B2002C3AD0444528BF4446EB88C3F3BC
:102570004E03F21AA24222DC28683946184407F0BA
:102580008FFBB5F90810EB88A1EB5301621A3944AF
:10259000286807F085FBAB79C3F30002D24362F3EE
:1025A0000003AB71EB88C3F34E022989521A22440F
:1025B00062F34F03EB8026463046BDE8F0812646A5
:1025C000286822463946184407F06AFBEB88C3F3B3
:1025D0004E02144464F34F03EB80EDE70026EBE773
:1025E00038B504460D46FFF794FFB4F9083083422E
:1025F00020D0E388C3F34E032268D554E388C3F3A5
:102600004E03B4F90820013A934206D00133E28820
:1026100063F34F02E280012038BDA379C3F30002C7
:10262000D24362F30003A371E3886FF34F03E380A7
:102630000120F1E70020EFE738B504460D46FFF72B
:1026400068FF98B1A388C3F34E032268D35C2B7054
:10265000A388C3F34E03B4F90820013A934206D08D
:102660000133A28863F34F02A280012038BD237991
:10267000C3F30002D24362F300032371A3886FF314
:102680004F03A3800120F1E708B51248124B036005
:102690004FF4827343604FF4004383600023C360B0
:1026A00002220261012242614FF40072826108221B
:1026B000C2610362436283620A23C36206F0FAFACC
:1026C00018B1064803F020FBFEE7054803F01CFBA9
:1026D00008BD00BF6823002000300140A89E00080C
:1026E000BC9E000808B502F08DFF034804F076FA9E
:1026F00002F096FF08BD00BF1C020020D0F8BC32DB
:1027000083B110B5D0F8B84294F80002FF2807D082
:102710009B6894F8012221469847FF2384F80032F1
:10272000002010BD002070474323038000487047FD
:1027300044000020432303800048704788000020A5
:102740004323038000487047D80000200A230380F9
:1027500000487047CC00002038B50446D0F8B85285
:1027600000F01DFFC5F80C02D4F8B8324BB1D4F814
:10277000BC32DB6805F50371D5F8040298470020E8
:1027800038BD0220FCE7D0F8B82202B338B501EB1F
:10279000810300EB8303DB694BB1D0F8C04204EB4B
:1027A0004114A56BB3FBF5F405FB14331BB10020FA
:1027B000C2F8140238BD01EB810300EB830300244F
:1027C000DC612346224600F0DAFE2046F2E70220D2
:1027D0007047F0B583B006460C46D0F8B8720023B7
:1027E0008DF80730ADF804300B7813F0600527D072
:1027F000202D53D1CA88DAB113F0800F0CD0D0F855
:10280000BC329B68394660789847E2883946304642
:1028100000F049FD002544E04B7887F80032CB8872
:1028200087F80132CA88394600F052FD002538E0A9
:10283000D0F8BC329B68002248789847002530E0E9
:102840004F780A2F14D00B2F20D01FB100F03EFA82
:10285000022526E090F89C32032B03D000F036FAD4
:1028600002251EE0022201A900F01DFD3D4618E0F0
:1028700090F89C32032B03D000F028FA022510E0D8
:1028800001220DF1070100F00EFD0AE090F89C32E4
:10289000032B06D000F01AFA022502E000F016FA27
:1028A0000225284603B0F0BD38B50446812100F06A
:1028B00038FE0025E5620121204600F032FEC4F812
:1028C0006C518221204600F02CFE2564D4F8B832E9
:1028D0004BB1D4F8BC325B689847D4F8B80200F02A
:1028E00069FEC4F8B852002038BD70B50446037CB8
:1028F000ABBB4FF400730222812100F007FE0125DB
:10290000E5624FF4007302222946204600F0FEFDE6
:10291000C4F86C51082303228221204600F0F6FD02
:10292000012323644FF4077000F040FE0546C4F80D
:10293000B80268B3D4F8BC321B6898470023C5F8C6
:102940001432C5F81832267CCEB94FF40073D5F88E
:1029500004220121204600F01AFE304670BD4023BB
:102960000222812100F0D2FD0125E56240230222EE
:102970002946204600F0CAFDC4F86C51CAE740233E
:10298000D5F804220121204600F001FE0026E4E7EC
:102990000126E2E719B1C0F8BC12002070470220FE
:1029A0007047D0F8B832C3F80812C3F810220020DC
:1029B0007047D0F8B832C3F804120020704710B541
:1029C000D0F8B82292B1047C44B94FF40073D2F825
:1029D0000422012100F0DBFD204610BD4023D2F887
:1029E0000422012100F0D3FD0024F5E70224F3E7DF
:1029F00098B108B50346D0F8B40210B10020C3F86E
:102A0000B40209B1C3F8B012012183F89C121A7004
:102A1000184600F031FD002008BD0220704719B1B2
:102A2000C0F8B412002070470220704708B500F0CB
:102A300065FD002008BD08B5D0F8B4322BB11B6885
:102A40009847002818BF022008BD0220FCE708B5FF
:102A5000D0F8B4325B689847002008BD38B504460A
:102A600000F52A75284600F01DF90123C4F89432B8
:102A7000B4F8AE32C4F8983294F8A81201F01F03EB
:102A8000012B0ED0022B11D02BB101F0800120467A
:102A900000F04FFD03E02946204600F021F9002018
:102AA00038BD2946204600F0D5FAF8E729462046E9
:102AB00000F000FBF3E738B504460D4681BB134632
:102AC000D0F89422032A03D0052A22D0084631E008
:102AD000D0F86011D0F8642191420BD9891AC0F85E
:102AE00060118A428CBF8AB292B2194600F0FFFB95
:102AF00028461FE0D0F8B4321B691BB190F89C2225
:102B0000032A04D0204600F0FAFB284612E098473A
:102B1000F8E70021C0F8941200F00BFD284609E008
:102B2000D0F8B4329B6933B190F89C22032A04D1C7
:102B30009847002038BD0220FCE70220FAE738B5AC
:102B400004460D46002952D11346D0F89422022A99
:102B50000BD032F0040302D1802100F0EAFC94F89B
:102B6000A032012B3ED0284638BD016A426A91420C
:102B70001BD8C169B1FBF2F302FB13132BB98A42D4
:102B800003D8D0F8983299421CD3D4F8B432DB6819
:102B90001BB194F89C22032A21D08021204600F00A
:102BA000C8FC204600F0B6FBD9E78A1A026292B24E
:102BB000194600F085FB00231A461946204600F00E
:102BC000E6FCCCE70022114600F07AFB0021C4F8B5
:102BD00098120B460A46204600F0D9FCBFE7204673
:102BE0009847DAE7002384F8A0322846BCE7D0F8FB
:102BF000B4325B6933B190F89C22032A04D1984720
:102C00000020B1E70220AFE70220ADE770B504462F
:102C100040230022114600F079FC0125C4F85851E8
:102C20004026C4F86461334600228021204600F02B
:102C30006DFCA561666284F89C520023C4F894324E
:102C40006360C4F8A432D4F8B8322BB1D4F8B432EB
:102C50005B68002120469847002070BD0174002069
:102C6000704790F89C3280F89D32042380F89C32A3
:102C70000020704790F89C32042B04BF90F89D32DE
:102C800080F89C320020704708B590F89C32032BE6
:102C900001D0002008BDD0F8B432DB69002BF8D099
:102CA0009847F6E70B7803704B784370CA788B78B7
:102CB00003EB022343804A790B7903EB02238380E1
:102CC000CA798B7903EB0223C380704710B50446A1
:102CD000802100F02EFC0021204600F02AFC10BDCF
:102CE00030B583B005460C460B7803F06003202B0B
:102CF00005D0402B03D05BB1FFF7E8FF05E0D5F826
:102D0000B4329B68214628469847002003B030BD66
:102D10004B78092B00F29881DFE813F05F01840102
:102D200096017B019601C9000A0096014001EE0060
:102D30000023ADF806304A88130A013B062B00F247
:102D4000A480DFE803F004182CA2A2869300D0F838
:102D5000B0321B680DF10601007C9847BDF80620D3
:102D6000002A00F09F80E388002B40F092802846E4
:102D700000F0C5FAC9E7037C43B9D0F8B4329B6AC6
:102D80000DF10600984702234370E7E7D0F8B4320C
:102D9000DB6A0DF10600984702234370DEE7D2B2EA
:102DA000052A52D8DFE802F003101D2A3744D0F874
:102DB000B0325B6823B10DF10601007C9847CDE786
:102DC0002146FFF783FFA0E7D0F8B0329B6823B11C
:102DD0000DF10601007C9847C0E72146FFF776FF1A
:102DE00093E7D0F8B032DB6823B10DF10601007C27
:102DF0009847B3E72146FFF769FF86E7D0F8B0327E
:102E00001B6923B10DF10601007C9847A6E7214616
:102E1000FFF75CFF79E7D0F8B0325B6923B10DF1C1
:102E20000601007C984799E72146FFF74FFF6CE7C2
:102E3000D0F8B0329B6923B10DF10601007C9847B0
:102E40008CE72146FFF742FF5FE72146FFF73EFF91
:102E50005BE7037C33B9D0F8B4325B6B0DF106004D
:102E600098477BE72146FFF731FF4EE7037C43B9E4
:102E7000D0F8B4321B6B0DF106009847072343705E
:102E80006CE72146FFF722FF3FE72146FFF71EFFD1
:102E90003BE79A4228BF1A46ADF80620014628466D
:102EA00000F001FAE388002B7FF42FAF5FE78B88F7
:102EB000EBB9CB88DBB94B887F2B18D890F89C22D4
:102EC000032A0DD0DCB280F89E42214600F04FFB71
:102ED000284600F014FA34B1022385F89C3214E736
:102EE000FFF7F4FE11E7012385F89C320DE7214638
:102EF0002846FFF7EBFE08E78B78554A1370012B45
:102F00000DD890F89C22022A0CD0032A20D0FFF77B
:102F1000DDFE4F4B19782846FFF799FDF5E6FFF7E0
:102F2000D5FEF2E68BB101214160032380F89C328B
:102F3000FFF781FD022803D0284600F0E0F9E4E61F
:102F400021462846FFF7C2FEDFE600F0D8F9DCE6AE
:102F50008BB1416801291ED0C9B2FFF778FD3C4B07
:102F6000197869602846FFF766FD02280ED02846CA
:102F700000F0C5F9C9E6022380F89C3200214160C7
:102F8000FFF765FD284600F0BAF9BEE6214628465F
:102F9000FFF79CFEB9E600F0B2F9B6E6CB88012B4C
:102FA00009D190F89C32022B08D873B921462846E3
:102FB000FFF78CFEA9E6FFF789FEA6E6032BF5D105
:102FC0000122011D00F06FF99FE60146002341F840
:102FD000083F012200F067F997E690F89C32013B28
:102FE000022B13D8CB88022B0DD10123C360D0F85C
:102FF000A4320BB10323C360022205F10C01284661
:1030000000F051F981E6FFF761FE7EE6FFF75EFE14
:103010007BE64B88012B7FF478AEC0F8A43200F039
:103020006EF972E690F89C32013B022B09D84B886E
:10303000012B7FF46AAE0023C0F8A43200F05FF9E0
:1030400063E6FFF743FE60E6FFF740FE5DE600BF84
:103050005017002038B505460C460B7803F0600287
:10306000402A06D013F0400F03D0FFF72FFE0020B8
:1030700038BD95F89C32013B022B16D82379012BE1
:103080000ED8D5F8B4329B68214628469847E38885
:10309000002BECD10028EAD1284600F030F9E6E711
:1030A00021462846FFF712FEE1E721462846FFF7B2
:1030B0000DFEDCE738B504460B7803F06003202BE7
:1030C00005D0402B03D04BB1FFF700FE04E0D4F84D
:1030D000B4329B6820469847002038BD8A88D0B219
:1030E0004B78012B31D0032B05D0002B56D0204636
:1030F000FFF7ECFDF0E794F89C32022B05D0032B90
:1031000013D02046FFF7E2FDE6E710F07F0F08D06E
:103110000146204600F00DFA8021204600F009FA11
:10312000DAE72046FFF7D2FDD6E74B8823B910F047
:103130007F0F01D0CB881BB1204600F0E0F8CBE731
:103140000146204600F0F5F9F6E794F89C32022B90
:1031500005D0032B13D02046FFF7B8FDBCE710F0D5
:103160007F0F08D00146204600F0E3F98021204679
:1031700000F0DFF9B0E72046FFF7A8FDACE74B8889
:10318000002BA9D110F07F0F03D1204600F0B7F833
:10319000A2E70146204600F0D4F9F6E794F89C3205
:1031A000022B05D0032B18D02046FFF78FFD93E7A5
:1031B00010F07F0F03D02046FFF788FD8CE712F058
:1031C000800F14BF04F1140104F5AA7100230B60F1
:1031D0000222204600F067F87EE712F0800F1BD134
:1031E00000F00F0303EB830304EB8303D3F85831A0
:1031F00033B300F07F0303EB830304EB830505F592
:10320000AA7510F07F0F1FD100232B6002222946E0
:10321000204600F048F85FE700F00F0303EB83035C
:1032200004EB83039B693BB100F07F05013505EB9F
:10323000850504EB8505E4E72046FFF747FD4BE7EE
:103240002046FFF743FD47E70146204600F081F99D
:1032500010B101232B60D9E700232B60D6E708B318
:1032600070B4044603783BB1C0F101068319DBB2A8
:1032700010F8015F002DF9D101335B0013800B7052
:1032800003234B70207858B1022300255A1CD2B278
:10329000C8540233DBB28D5414F8010F0028F5D165
:1032A00070BC7047704710B513460222C0F89422D4
:1032B000C36103620A46002100F061F9002010BDDD
:1032C00008B513460A46002100F059F9002008BD50
:1032D00010B513460322C0F89422C0F85C31C0F840
:1032E00060310A46002100F052F9002010BD08B5F7
:1032F00013460A46002100F04AF9002008BD08B52F
:103300000423C0F8943200231A46194600F037F916
:10331000002008BD08B50523C0F8943200231A46E2
:10332000194600F034F9002008BD00207047002045
:103330007047000070B504460D46094E0146304600
:10334000FFF737FB3046FFF73AFB2A88214605484E
:10335000FFF7FCF8044802F04BF8002070BD00BFF6
:10336000542B0020182E00204823002010B5064CB6
:10337000002206492046FFF714FB05492046FFF7C7
:1033800018FB002010BD00BF542B00208426002015
:103390002026002020B1022814BF022001207047FF
:1033A0007047000002680E4B9A4200D0704700B58B
:1033B00083B003F5DA33DA6942F40002DA61DB69DB
:1033C00003F400030193019B03221146142003F030
:1033D0002FFB142003F05EFB03B05DF804FB00BF7D
:1033E000005C004008B500F50C71D0F86802FFF7EA
:1033F00035FB08BD08B500EB4113D3F83C21D0F8EC
:103400006802FFF758FB08BD08B500EB4113DA6B03
:10341000D0F86802FFF793FB08BD08B5D0F8680242
:10342000FFF732FC08BD10B504468368022B09D1B2
:103430000121D4F86802FFF711FCD4F86802FFF705
:10344000E5FB10BDFDF79CFEF2E7000010B5044659
:10345000D0F86802FFF705FCA36923B1024A13699B
:1034600043F00603136110BD00ED00E008B5D0F88D
:103470006802FFF7FFFB08BD10B504461D48C0F801
:103480006842C4F8C0021C4B036008234360022357
:10349000836000238361C361036204F0C1FB30BB1E
:1034A000182300221146D4F8C00204F0D9FF582393
:1034B00000228021D4F8C00204F0D2FFC0230022F1
:1034C0008121D4F8C00204F0CBFF4FF488730022AE
:1034D0000121D4F8C00204F0C3FF4FF4807300222E
:1034E0008221D4F8C00204F0BBFF002010BDFDF71C
:1034F00047FED5E7E8260020005C004008B5D0F87C
:10350000C00204F006FCFFF745FF08BD10B51446E5
:103510001A462346D0F8C00204F026FCFFF73AFF13
:1035200010BD08B5D0F8C00204F055FCFFF732FF1B
:1035300008BD08B5D0F8C00204F024FFFFF72AFF49
:1035400008BD08B5D0F8C00204F053FFFFF722FF12
:1035500008BDD0F8C03211F0800F01F07F0103EBFD
:10356000411114BF91F82A0091F82A01704708B55B
:10357000D0F8C00204F0E4FBFFF70CFF08BD08B56B
:10358000D0F8C00204F074FCFFF704FF08BD08B5D2
:10359000D0F8C00204F04DFCFFF7FCFE08BD08B5F2
:1035A000D0F8C00204F05DFC08BD00000048704780
:1035B000541700207047704712230B800048704753
:1035C0004801002004230B80004870475C01002064
:1035D000AAB170B4144600234E1C1D46020FB0F170
:1035E000204F34BF3032373201F81320000106F883
:1035F00013500133DAB2A242F0D370BC7047704767
:1036000038B51A230B800B4B186808331B68C01899
:1036100001D1094838BD094B1D68074C0822A11C7F
:10362000FFF7D6FF042204F112012846FFF7D0FF6E
:10363000EFE700BFE8F7FF1F60010020ECF7FF1F76
:1036400008B50A4602490348FFF709FE004808BDCD
:1036500054290020CC9E000810B50A46034C214690
:103660000348FFF7FCFD204610BD00BF5429002091
:10367000E49E000808B50A4602490348FFF7EFFD3B
:10368000004808BD54290020F89E000808B50A46E5
:1036900002490348FFF7E3FD004808BD5429002014
:1036A000049F000810B54FF480620B490B48FEF7E9
:1036B0001DFF0B4C00220B492046FFF799F90A49E0
:1036C0002046FFF7ACF909492046FFF763F9204689
:1036D000FFF7ACF910BD00BF74190020182E0020B0
:1036E000542B00202C0100200C0000201C01002085
:1036F00010B50446102213491348FEF7F7FE0023C5
:103700001A461249124801F0FBFD00231A461149DE
:10371000114801F0F5FD1148114B0360446000238E
:103720008360C360036183610C23436105F012FD74
:1037300000B1FEE7094B1A68D36843F02003D36059
:1037400010BD00BF741D0020042F0020149F00082E
:10375000642E0020249F0008102F0020842E0020BB
:103760000038014008B50B4B0B4A1A605860002224
:103770009A60DA601A619A610C225A61184605F063
:10378000E9FC00B1FEE7034B1A68D36843F020035D
:10379000D36008BDC42E00200044004038B501F0BD
:1037A00031FF104B1B681A6812F0200F16D0DA6830
:1037B00012F0200F12D01A6812F0200F0BD00A4D11
:1037C000084C5968C9B22846FEF70AFF23681A68F0
:1037D00012F0200FF5D1054801F00AFE01F020FF9C
:1037E00038BD00BF842E0020042F0020642E00204E
:1037F00008B501F007FF034803F0F0F901F010FFEE
:1038000008BD00BF600200202DE9F04383B00646EA
:103810000D238DF8073002F0BEF8E0B134460644BF
:10382000DFF838904FF47A7801270EE043463A46A5
:103830000DF10701484605F0BCFC43463A462946CF
:10384000484605F0B6FCB44205D0254601342B7835
:103850000A2BF2D1EAE703B0BDE8F083842E002002
:1038600030B583B000238DF80730094C094D0DF1B8
:1038700007012046FEF7E0FE012805D04FF0FF319A
:10388000284601F04DFDF2E79DF8070003B030BD7A
:10389000042F0020642E002070B52F4B1C68002CD4
:1038A00059D000252E4619E0638B0A331BB263837F
:1038B000228B93420FDBB4F92230228C6284238462
:1038C0006683E683237D43F01003237503E02369B9
:1038D0000BB1204698472468002C3CD0237D13F080
:1038E000020FF8D0E38B0A331BB2E383002BF2DD27
:1038F000A28B9342A8BFE283E36813B120469847A6
:103900000546A36813B1294660689847B4F91E209C
:10391000A38B9A42DFDB237D03F01803082BC3D06F
:103920006683E38A5B42E383237D66F30413237596
:10393000DAB213F0080F04D0B4F92230218C61847C
:10394000238412F0040FC2D1237D03F0FD036FF333
:1039500000032375BBE770BD302F002070B4B1F9B0
:103960000050B2F900309D42B8BF1D460580B1F944
:103970000440B2F904309C42A8BF1C468480B1F9CF
:103980000230B2F90260B342B8BF33464380B1F9A6
:103990000610B2F906208A42A8BF0A46C280A54294
:1039A00005DC9342CCBF0020012070BC7047002092
:1039B000FBE7000010B584B00E4A002313807F217E
:1039C000918053803F21D180137713620A4C1422D7
:1039D0000392032202924FF400720192074A00926E
:1039E000074A0849204602F02BFD204602F08AFED5
:1039F00004B010BD34330020841D0020041E0020BC
:103A0000B93C0008389F0008024B1870024B002296
:103A10001A80704706200020042000208A1C074BD3
:103A200053F822302BB11A465B68002BFBD1506053
:103A30007047024B43F82200704700BF3433002028
:103A400030B583B00D46044620B903B030BD64687C
:103A5000002CFAD06369002BF9D0237A002BF6D121
:103A600004F10A0229466846FFF778FF0028EED0E5
:103A70006369694620469847E9E700002DE9F04F61
:103A800085B00D46114600921F469B792B44B0F934
:103A9000002093420EDB0646B0F90430AB4209DB4E
:103AA000FB790B44B0F90220934203DBB0F90630F6
:103AB0008B4202DA05B0BDE8F08F9DF83810384629
:103AC00000F01EF984460028F4D0B6F90030AB426D
:103AD000A6BF5B1BDAB20022B6F90430B9794819E7
:103AE000834202DA591C491BC9B2B6F90230009868
:103AF0008342A6BF1B1A5FFA83F84FF00008B6F99D
:103B0000063097F80790009C09EB0400834204DA22
:103B1000C4F1010003445FFA83F908F00700802331
:103B200003419BB203937B7902FB03F000EBD800C7
:103B300080B20CEB0004C9EBC303C3F3CC0303EB6B
:103B4000D803013301938A42B4D250196B1C134439
:103B5000D2430A44D2B213440293009B9E465E1C99
:103B600046446FEA08034B44DBB21E442A4F4AE046
:103B70009A46002BB8BF03F1070A4FEAEA0A07EB9F
:103B8000CA1AD3F1000B03F007020BF0070B58BF62
:103B9000CBF1000205FA02F21AF800B02BEA020299
:103BA0000AF800201FE00133B34225D022780A42F0
:103BB000DED09A46002BB8BF03F1070A4FEAEA0AA3
:103BC00007EBCA1AD3F1000B03F007020BF0070B47
:103BD00058BFCBF1000205FA02F21AF800B042EA2F
:103BE0000B020AF800204908DDD1A3EB0E02944530
:103BF000C4BF01348021D6E7019B1C440130029BE5
:103C000098423FF457AFC845F6D2009B434403990E
:103C1000012509F1FF3CC9E7342F00202DE9F04FC1
:103C200083B01E460C9FBDF83430CBB18046894628
:103C300092467D1E013B9BB21F444FF0000B0BEBE5
:103C4000090115F8013F00933346524609B2404638
:103C5000FFF714FFB4795C441FFA84FBBD42EED138
:103C600003B0BDE8F08F000008B54FF4806200217A
:103C7000014801F0BBFD08BD342F002038B50C4DC4
:103C80004FF0FF31284601F0E2FBFFF7EDFF094C52
:103C9000237F0233214654F82300FFF7D1FE21464B
:103CA000206AFFF7CDFE284601F066FC38BD00BF54
:103CB000FC2500203433002008B50F4E0F4C41F294
:103CC000A17508E041F26F72934211D9FFF7CCFF62
:103CD0000A2002F0EDFCFFF7DFFD337813B12388F3
:103CE000013323802388AB42ECD900232380EFE704
:103CF000FFF7C4FFECE700BF0620002004200020EF
:103D00000346006818B11B79203901FB0300704796
:103D100030B585B00446856900F10A0202A8FFF7B4
:103D20001DFE08B905B030BDAB69A289E98B0A4414
:103D30006189A88B0144287D0190009512B209B2D7
:103D400002A8FFF76BFFEDE70023036043600372F7
:103D50004381C38183810382034A426181618B6114
:103D60000B758B83CB837047113D000870B4C489F9
:103D70004689038A858941812144891BC1818281C9
:103D80001A44521B028270BC70470139438919449E
:103D9000C181013A83891A4402827047836999611B
:103DA000704770B50D468669084601F0F4FDC4B24F
:103DB000142C28BF142422462946304601F05FFD0A
:103DC000347570BD08B5024801F09EFF002008BDA3
:103DD000ACA50008F8B50468A04211D00546094E0C
:103DE000094F05E0384601F08FFF2468A54207D04F
:103DF000A4F11401304601F087FF2368AB42F1D1F2
:103E0000F8BD00BFC0A50008C4A5000808B501F0B2
:103E100091FF002008BDF8B500230B61CB6823B3E8
:103E200004460E460B7A13B30F6810B3FCF790F9F3
:103E300014F8043C23F08003327A93420BD1736868
:103E400000252468A7420AD0013543F8044BF268E4
:103E5000AA42F6D104E0FCF77FF9002403E0002435
:103E6000FCF77AF935612046F8BD0024FBE7002411
:103E7000F9E7FCF76DF93C46E1E700002DE9F04F6A
:103E800093B0012002F024F904300D9001238DF845
:103E90003C3005AB0E930824109400231193434A41
:103EA0002146434801F030FF424D284601F02CFFE7
:103EB000013CFAD1404801F027FF00230393DFF8CB
:103EC0000891DFF80881DFF808B1DFF808A15EE0AB
:103ED000FCF742F994F829300093A4F10C0308226E
:103EE0001146404601F010FF94F8283003F00F030C
:103EF000012B34D0022B36D0002B38D0042B3AD0F3
:103F0000032B3CD0E1690B78232B3CD10B4613F8F3
:103F1000012F232AFBD0226A1144CB1A642000FB14
:103F200003F32069676A0197E46B0094B3FBF2F333
:103F3000091A484601F0E8FE0135119BAB4224DD29
:103F400056F8044FFCF704F914F8043C23F08003FE
:103F50009DF83C209342BBD0FCF7FEF8ECE71748F5
:103F600001F0D2FECEE7164801F0CEFECAE71548B2
:103F700001F0CAFEC6E7504601F0C6FEC2E7584649
:103F800001F0C2FEBEE70B46C5E7039B53B10DA986
:103F90000398FFF740FF0390119B002BF5DD04AE63
:103FA0000025CDE7002013B0BDE8F08FC8A50008BC
:103FB000D0A5000814A6000818A6000864A60008EA
:103FC00070A600087CA60008A0A6000858A6000855
:103FD00094A6000888A600082DE9F041104801F0D9
:103FE00093FE104B1C68104B1B689C4215D20F4F60
:103FF000DFF83C800C4E03E008343368A3420CD950
:10400000256802223946284605F060FE0028F3D0D4
:104010002946404601F078FEEEE70020BDE8F08139
:10402000C8A60008082000200C200020DCA60008FC
:10403000E0A600082DE9F04790B00A2002F048F809
:1040400004300B900A238DF8343003AB0C93082412
:104050000E9400230F932A4A21462A4801F054FE69
:10406000294D284601F050FE013CFAD1274801F0C5
:104070004BFE0027DFF89CA0DFF89C80DFF89C90C7
:1040800029E0FCF769F801350F9BAB4222DD56F8B9
:10409000044FFCF75DF814F8043C23F080039DF80E
:1040A00034209342EDD1FCF757F8E3690193A369FB
:1040B0000093A4F10C0308221146404601F024FEAF
:1040C00014F8033C13F0010F14BF4846504601F0AA
:1040D0001BFED8E757B10BA93846FFF79CFE0746F1
:1040E0000F9B002BF6DD02AE0025D0E701F000F8B3
:1040F0000146074801F008FE002010B0BDE8F08737
:10410000E4A60008ECA6000814A6000814A70008FE
:104110006CA700085CA7000838A7000850A7000893
:104120002DE9F04F91B0062001F0D2FF04300B9042
:1041300006238DF8343003AB0C9308240E9400232F
:104140000F93324A2146324801F0DEFDA046314C41
:10415000204601F0D9FDB8F10108F9D12E4801F04F
:10416000D3FD4FF00009DFF8B8B0DFF8B8A03DE0AC
:10417000FBF7F2FF01360F9BB34234DD57F8045FC3
:10418000FBF7E6FF15F8043C23F080039DF834208C
:104190009342EDD1FBF7E0FF05F10804AA689442D1
:1041A00015D0A5F10C03288B4146013112689442C9
:1041B000FBD10191009008221146584601F0A4FD60
:1041C0002046FFF707FE504601F09EFDD2E7002390
:1041D00001932B8B0093A5F10C03082211460F4885
:1041E00001F092FDC6E7B9F1000F0AD00BA94846CD
:1041F000FFF711FE81460F9B002BF4DD02AF002676
:10420000BCE7002011B0BDE8F08F00BF84A7000814
:1042100090A7000814A60008ACA70008D8A70008BB
:10422000C4A70008C0AC00082DE9F04F93B00520EA
:1042300001F04EFF04300D9005238DF83C3005ABA6
:104240000E930824109400231193344A21463448D5
:1042500001F05AFDA046334C204601F055FDB8F15F
:104260000108F9D1304801F04FFD4FF00009DFF8A7
:10427000C0B0DFF8C0A041E0FBF76EFF0136119B34
:10428000B34238DD57F8044FFBF762FF14F8043CE3
:1042900023F080039DF83C209342EDD1FBF75CFFB7
:1042A00004F10805A268954217D0A4F10C03E08A36
:1042B000A48A4146013112689542FBD102910194D2
:1042C000009008221146584601F01EFD2846FFF7CF
:1042D00081FD504601F018FDD0E700230293A38A28
:1042E0000193E38A0093A4F10C03082211460F48BE
:1042F00001F00AFDC2E7B9F1000F0AD00DA9484646
:10430000FFF789FD8146119B002BF4DD04AF0026E9
:10431000B8E7002013B0BDE8F08F00BFECA700089D
:10432000F4A7000814A6000818A800084CA8000864
:1043300034A80008C0AC00082DE9F04792B0032073
:1043400001F0C6FE04300D9003238DF83C3005AB20
:104350000E9308271097002311932C4A39462C48B6
:1043600001F0D2FC2B4C204601F0CEFC013FFAD1EB
:10437000294801F0C9FC4FF00008DFF8A09035E0B3
:10438000FBF7EAFEAAF10C03DAF814C09AF813E07E
:104390000AF10800DAF80820904222D039460131AB
:1043A00012689042FBD10391CDF808E0CDF804C02B
:1043B000009632463146484601F0A6FC0134119B76
:1043C000A34210DD55F804AFFBF7C2FE1AF8043C17
:1043D00023F080039DF83C209342D1D0FBF7BCFE34
:1043E000ECE73946DFE7B8F1000F0BD00DA94046E6
:1043F000FFF711FD8046119B002BF4DD04AD002476
:104400000826DFE7002012B0BDE8F08764A80008A6
:104410006CA8000814A6000890A80008B0A800081E
:104420002DE9F04F91B0042001F052FE04300B90C2
:1044300004238DF8343003AB0C9308240E9400232E
:104440000F93314A2146314801F05EFCA046304CC2
:10445000204601F059FCB8F10108F9D12D4801F0CE
:1044600053FC4FF00009DFF8B4B0DFF8B4A03BE034
:10447000FBF772FE01360F9BB34232DD57F8044F53
:10448000FBF766FE14F8043C23F080039DF834200B
:104490009342EDD1FBF760FE04F10805A268954256
:1044A00015D0A4F10C0320694146013112689542F0
:1044B000FBD10191009008221146584601F024FCDE
:1044C0002846FFF787FC504601F01EFCD2E723691F
:1044D0000093A4F10C03082211460F4801F014FCCC
:1044E000C8E7B9F1000F0AD00BA94846FFF793FCC3
:1044F00081460F9B002BF4DD02AF0026BEE70020B3
:1045000011B0BDE8F08F00BFC8A80008D0A800080F
:1045100014A60008F4A800082CA9000814A9000893
:10452000C0AC00082DE9F04F91B0022001F0D0FDA1
:1045300004300B9002238DF8343003AB0C93082425
:104540000E9400230F93324A2146324801F0DCFBDF
:10455000A046314C204601F0D7FBB8F10108F9D153
:104560002E4801F0D1FB4FF00009DFF8B8B0DFF8BA
:10457000B8A03DE0FBF7F0FD01360F9BB34234DD00
:1045800057F8045FFBF7E4FD15F8043C23F08003C3
:104590009DF834209342EDD1FBF7DEFD05F10804D0
:1045A000AA68944215D0A5F10C03288A414601312E
:1045B00012689442FBD1019100900822114658469E
:1045C00001F0A2FB2046FFF705FC504601F09CFBE2
:1045D000D2E7002301932B8A0093A5F10C03082254
:1045E00011460F4801F090FBC6E7B9F1000F0AD061
:1045F0000BA94846FFF70FFC81460F9B002BF4DD0B
:1046000002AF0026BCE7002011B0BDE8F08F00BF6C
:1046100040A900084CA9000814A6000868A90008D1
:1046200090A9000880A90008C0AC00082DE9F0415D
:10463000124801F069FB124B1C68124B1B689C422C
:1046400015D2114FDFF848800E4E03E0083433686E
:10465000A3420CD9256806223946284605F036FBC8
:104660000028F3D1A91D404601F04EFBEEE70748B4
:1046700001F04AFB0020BDE8F08100BFACAA0008B1
:10468000082000200C200020C8AA0008C0AC0008A8
:10469000D0AA000808B5FFF7F1FB002008BD08B557
:1046A00001F0BEFB002008BD012070472DE9F04F4E
:1046B0008BB003460144CC1A1F461A7818460133C2
:1046C000202AF8D0092AF6D01CB900200BB0BDE88A
:1046D000F08F4FF0000808F1010810F8013F202B7F
:1046E00005D0092B03D0A045F5D1A04603E0B8F1D1
:1046F000000F00F08D80CDF804805B4B1D685B4B94
:10470000D3F800904D4580F08380DFF874B14FF00E
:10471000060A02E008354D457AD22E6852465946BF
:10472000304605F0D3FA0028F4D142463946B01D90
:1047300005F0CCFA0028EDD1019B1E44B379002B83
:10474000E8D16D68002D63D02022002102A805F079
:10475000B5FA3E46012000239C4624E0A3426BD2DA
:1047600002F801CC0133164612F8011B2029F5D0BE
:104770000929F3D009281AD0A34245D2222919D0F9
:1047800002AA02EB800242F8046CE11A3144B14201
:1047900067D0013316F8012F202A01D0092AF6D15B
:1047A000A3425ED2013000F1FF383246DBE74FF022
:1047B000080844E0711C013302AA02EB800242F8AF
:1047C000041C7278222A16D0A34210D349E04A78FA
:1047D000222A03D001334A78013106E04A1C013312
:1047E000511C01335278222A05D09C4239D95C2AC7
:1047F000EDD00A46F4E7A34233D20E4606F801CBC9
:104800000133A342CED32CE04046B8F1000F28D1AB
:104810003B78202B08BF3A4605D03A461BB112F828
:10482000013F202BFAD1002313703946104801F0C4
:104830006BFA4FF0FF3049E7B8F1070FE4D90D48A4
:1048400001F062FA02AE00240B4F56F8041B384602
:1048500001F05AFA01344445F7D3084801F054FAFC
:10486000404602A9A84731E7082000200C2000207C
:10487000F4AA0008D4AA0008D0AA0008C0AC000816
:10488000C8AA00082DE9F84F037873B106462C4BEF
:104890001D682C4B1B689D424FD24FF00009C84643
:1048A000DFF8A8B0DFF89CA013E000210846FFF76E
:1048B000BDFE42E04A46A2EB09029045A8BF9046E1
:1048C0003946214801F020FA0835DAF80030AB42C9
:1048D0002BD92C6806225946204605F0F7F9002806
:1048E000F2D1A71D3046FBF7B3FC024639463046ED
:1048F00005F0ECF90028E7D1B8F1000F04D13846F3
:10490000FBF7A6FC8046B94699F80030002BD1D0C1
:1049100005344A4614F8011F0029CCD09942CAD167
:1049200012F8013F002BF5D1C5E7B9F1000F04D013
:1049300042464946304601F016F8BDE8F88F00BF00
:10494000082000200C200020E0A60008C8AA0008CB
:1049500030B583B01D4B1E4A1A601E4B1E4A1A60AA
:104960001E4B1F4A1A601F4B1F4A1A6078210120F4
:1049700001F04CFB1D4B186000B30A230193062382
:1049800000934FF40073002219491A4801F0A6FD64
:104990000446164D00231A461749286800F0B0FC5B
:1049A0002A6892F8213043F0020382F821305CB18A
:1049B000204601F0A7FE002003B030BD0F4801F0F3
:1049C000A3F94FF0FF30F7E70020F5E708200020BB
:1049D000309D00080C200020E09D000810200020E1
:1049E000E09D000814200020E09D000858330020BE
:1049F000794A000848AB000850AB000830AB00080B
:104A0000174B1B6893F8213013F0020F09D010B533
:104A1000144B196851B18022134805F069F9124806
:104A200010BD114B00221A700F487047FFF73CFE73
:104A300068B10D4B0D4A92E80300186019710A4CD9
:104A40002046FBF705FC0A4B1B882352E7E7064B81
:104A5000084A92E8030018609980090C9971EEE702
:104A6000583300209C2000201820002058AB00085C
:104A700068AB000860AB00082DE9F041B04B1A6844
:104A800092F8213043F0010382F82130FFF7B8FF9C
:104A900001F03AF9AA4DAB4EAB4F03E02B6801226F
:104AA00083F82020FEF7DCFE04461B28F6D02B6896
:104AB00093F82020012A38D0022A40D0621ED2B2B8
:104AC000FD2AEFD8092C67D07F2C00F09380082CAA
:104AD00000F090800D2C00F0D4800A2C00F0D180E2
:104AE000B3F872204F2A40F2F2800022A3F872201D
:104AF0001A4482F8224093F8213013F0010F40F05D
:104B00001A812A68B2F8723001339BB2A2F872306F
:104B1000B2F874100131A2F874104F2BC2D90023DF
:104B2000A2F87230A2F87430BCE75B2803D00022F0
:104B300083F82020C2E7022283F82020B2E7002277
:104B400083F82020A0F14102D2B2012AAAD9442838
:104B500014D04328B2D1B3F87420B3F87210914244
:104B6000A0D9134493F82210784801F0CDF82A68B0
:104B7000B2F874300133A2F8743093E7B3F87430AC
:104B8000002B8FD0724801F0BFF82A68B2F8743059
:104B9000013BA2F8743085E7B3F874205AB10024C1
:104BA000DFF8AC81404601F0AFF801342B68B3F870
:104BB0007420A242F6DC03F12204664801F0A4F856
:104BC000FFF772FD012811D0FFF71AFF01462246B8
:104BD000614801F099F82C6804F12200FBF738FBDA
:104BE00080B2A4F87200A4F874005BE72046FFF7D7
:104BF00049FEE9E7B3F8741000293FF453AFB3F866
:104C00007220013A92B2A3F87220013989B2A3F856
:104C100074108A420AD8304601F076F82B68B3F84F
:104C200072201344002283F822203BE701F1230481
:104C300001F12200521A1919184400F078FE2B686D
:104C4000B3F872201A44002182F82210B3F87410CD
:104C500022311944384601F057F82B68B3F87440F4
:104C6000B3F872309C423FF71DAFDFF8E480404656
:104C700001F04AF801342B68B3F87230A342F6DA37
:104C800010E7FFF711FD012810D0FFF7B9FE01F082
:104C90003BF82C685022002104F1220005F00EF8A8
:104CA0000023A4F87230A4F87430FBE62B6893F864
:104CB000213013F0010F06D12868B0F872102230AD
:104CC000FFF7F4FCE1E7234801F01EF8F4E7B3F83E
:104CD00074C062457FF60CAF0CF122010CF1230089
:104CE000A2EB0C021944184400F021FE2B68B3F823
:104CF0007420991881F8224093F8211011F0010FC7
:104D000013D12B68B3F87440B3F872309C42BFF6ED
:104D1000F8AEDFF83C80404600F0F6FF01342B6827
:104D2000B3F87230A342F6DCEBE6223299180B4856
:104D300000F0EAFFE5E72146044800F0E5FFE0E681
:104D40005833002084AB00087CAB000870AB00082F
:104D50006CAB0008C0AC000874AB0008C0A500082C
:104D600070B40646043222F00704A4F14000024663
:104D70000C4D42F8045B9442FBD144F8201C002205
:104D800044F81C2C44F8182C44F8142C44F8102C2B
:104D900044F80C3C44F8086C4FF0807344F8043C31
:104DA00070BC7047EFBEADDE10B504469D4B1B686E
:104DB0001BB19847002800F03481216C9A4800F01C
:104DC000A3FF616A994800F09FFFA16A984800F02C
:104DD0009BFFE16A974800F097FF216B964800F02F
:104DE00093FF6168954800F08FFFA168944800F038
:104DF0008BFFE168934800F087FF2169924800F03B
:104E000083FF6169914800F07FFFA169904800F03D
:104E10007BFFE1698F4800F077FF216A8E4800F040
:104E200073FF616B8D4800F06FFFA16B8C4800F041
:104E30006BFFE16B8B4800F067FF236813F0040FF2
:104E400024D001F045FB0146874800F05DFFFFF7E5
:104E500015F8864B1B6813F0020F1BD1834B1B68A0
:104E600013F0804F0CD0824B1B78BBB9814B1B7861
:104E7000002B56D1804B1B889BB2002B40F08B80BF
:104E80007A4B1B68002BC0F2C880FEE77B4800F01D
:104E90003BFFDEE77A4800F037FFDFE7794800F0B4
:104EA00033FF734C2178784800F02EFF237813F0FD
:104EB000010F1CD16E4B1B7813F0020F1BD16C4BF2
:104EC0001B7813F0040F1AD1694B1B7813F0080FED
:104ED00019D1674B1B7813F0100F18D1644B1B7856
:104EE00013F0800F17D1694800F00EFFBEE7684845
:104EF00000F00AFFDEE7674800F006FFDFE76648DC
:104F000000F002FFE0E7654800F0FEFEE1E76448DC
:104F100000F0FAFEE2E7634B1968634800F0F4FE24
:104F2000A4E7624800F0F0FE524C2178604800F09F
:104F3000EBFE237813F0010F17D14E4B1B7813F0C3
:104F4000020F16D14B4B1B7813F0080F15D1494BAC
:104F50001B7813F0100F14D1464B1B7813F0800F01
:104F600013D14A4800F0D0FE84E7524800F0CCFE4E
:104F7000E3E7514800F0C8FEE4E7504800F0C4FE03
:104F8000E5E74F4800F0C0FEE6E74E4B19684E4893
:104F900000F0BAFE6EE74D4800F0B6FE364C2188B0
:104FA00089B24B4800F0B0FE238813F0010F1CD1EA
:104FB000314B1B8813F0020F1BD12F4B1B8813F0B2
:104FC000040F1AD12C4B1B8813F0080F19D12A4B50
:104FD0001B8813F4807F18D1274B1B8813F4007FA4
:104FE00017D12A4800F090FE4AE73A4800F08CFEBC
:104FF000DEE7394800F088FEDFE7384800F084FE3D
:10500000E0E7374800F080FEE1E7364800F07CFE3C
:10501000E2E7354800F078FEE3E7344800F074FE3C
:1050200033E710BDA020002088AB000898AB000833
:10503000A8AB0008B8AB0008C8AB0008D8AB0008A4
:10504000E8AB0008F8AB000808AC000818AC000892
:1050500028AC000838AC000848AC000858AC000880
:1050600068AC000878AC000888AC00082CED00E0C3
:1050700029ED00E028ED00E02AED00E0A8AC0008F2
:10508000C4AC0008DCAC0008E8AC0008C0AC000808
:1050900000AD00080CAD000818AD000828AD0008F0
:1050A00034AD000838ED00E03CAD00084CAD000820
:1050B00060AD000878AD000884AD000890AD000830
:1050C0009CAD000834ED00E0A8AD0008B8AD0008C4
:1050D000C8AD0008E0AD0008ECAD0008F8AD000870
:1050E00000AE000808AE000814AE000820AE0008AC
:1050F000014B1868704700BFA420002008B5094A7A
:1051000013680133136001F0E3F9836C013B83649E
:1051100013B101F0E3FB08BD436C836401F052FA64
:10512000F7E700BFA4200020021E15DB0C4880FB1F
:105130000213D117C1EBA3114FF47A7303FB01F1F2
:10514000521A03FB02F303F2E73380FB0302D81782
:10515000C0EBA210084470474FF0FF30704700BF0B
:10516000D34D621000207047002070470020704728
:105170000020704738B5084A084B9A420BD21446B3
:105180005D1EAD1A25F003050435154454F8043BA3
:105190009847AC42FAD138BDE49D0008E89D00086C
:1051A00038B5084A084B9A420BD214465D1EAD1A18
:1051B00025F003050435154454F8043B9847AC42E8
:1051C000FAD138BDE89D0008F09D000808B5FFF74A
:1051D000E7FFFBF79FFF08BD00B583B014230193E1
:1051E000022300934FF4807300220449044801F025
:1051F00075F901F087FA03B05DF804FBCD510008A2
:1052000030AE000808B5FAF7A3FFFCF713FA00F078
:1052100091FD01F0A9FB00F0E9FFFFF7DDFF01F0D0
:10522000A9FB00F04DF801F005F8002008BD08B515
:10523000FFF7E8FF002008BDF8B51E4B1A689A4238
:1052400037D01E4612E0284600F0CCFF012825D0BA
:1052500001F098F83846FAF77FFF606900F0E4FE45
:10526000284600F0AAFF3368B34222D0FAF770FF55
:1052700007463368B3421AD03468254655F81429D6
:105280006368536022681A606460246001F06EF8FD
:10529000636E002BD7D028469847D4E7284600F005
:1052A00054FF01F06FF83846FAF756FF01E0FAF7BD
:1052B00053FFF8BDB833002008B5FFF7BDFFFCE78A
:1052C00010B584B00A4C20230393072302934FF4B4
:1052D00080730193074B00930023074A0749204638
:1052E00001F0AEF8204601F00DFA04B010BD00BF89
:1052F000A820002028210020B952000838AE00085C
:1053000070B5044616461D460A46022100F0F2FE1C
:1053100004F11403A3616361A6836572002070BD6C
:105320002DE9F04182B004460191FAF711FF0646DB
:10533000A38BF3B9019B13B301F0CAF80546002310
:10534000036304F1140794F8098001F069F9B8F1D6
:10535000000F19D0B8F1010F1FD0019B002B3CDCCE
:105360003046FAF7F9FE00F07DFF286B02B0BDE889
:10537000F081013BA383FAF7EFFE0020F6E7FAF78E
:10538000EBFE6FF00100F1E705F11403A269136071
:10539000A269AA61A3616F61DFE763699F4208D0D8
:1053A00095F8351093F821208A420BD81B689F424C
:1053B000F8D105F11403A2691360A269AA61A3617F
:1053C0006F61CAE705F1140259680A605968A9615A
:1053D0005A606B619F42C0D1EBE705F14C0401AA12
:1053E0000021204601F062FA204601F0FFF9B7E7FC
:1053F00038B50446FAF7ACFE0546234653F8140FB9
:10540000984209D0143801F059F92846FAF7A4FE59
:1054100000F028FF002038BDA38B0133A38328466A
:10542000FAF79AFEF6E738B5044615460A46032110
:1054300000F060FE04F11403A36163610123A38300
:1054400000202062FF23A377E077657238BD2DE945
:10545000F04782B00546019101F03AF80446FAF7A8
:1054600077FE0746002323632B6AA34206D004F18C
:1054700035094FF0020805F1140636E0EB7F0133E1
:10548000EB773846FAF768FE002002B0BDE8F087F7
:10549000013BAB832C6294F83530AB77EB7F013363
:1054A000EB77EEE76FF0010525633846FAF754FE17
:1054B0002846EAE74A46414601F03AF922E004F17B
:1054C0001403AA691360AA69A261AB616661019BBA
:1054D000002B42DC3846FAF73FFE00F0C3FE206B9B
:1054E000002845D010F1090FCFD1AB8B002BCFD1C5
:1054F000019B002BD6D0286A94F8352090F83530DF
:105500009A42D7D395F809A0204601F089F8BAF15C
:10551000000FD4D0BAF1010FD9D16B699E4208D0E7
:1055200094F8351093F821208A420BD81B689E42CC
:10553000F8D104F11403AA691360AA69A261AB61EE
:105540006661C4E704F1140259680A605968A161F0
:105550005A6063619E42BAD1EBE704F14C0A01AA9A
:105560000021504601F0A2F9504601F03FF9B1E7A1
:10557000FAF7EEFD074684E770B5044600F0A8FF91
:105580000546FAF7E5FD0646236AAB4220D1E37FE4
:10559000013BDBB2E37783BBA27F95F835309A42BB
:1055A0001DD1234653F8142F9A421FD0A2F11400A4
:1055B000206292F82130A377E37F0133E37701F093
:1055C0007DF83046FAF7C8FD00F04CFE002018E0E8
:1055D0004FF0FF342C63FAF7BFFD204611E004F1D1
:1055E0001E020221284601F0A3F8DAE7A38B01335B
:1055F000A38300232362FF23A3773046FAF7ACFD91
:10560000002070BD08B5FAF7A3FD044A13780133F2
:10561000DBB21370FAF7A0FD08BD00BF68330020AD
:1056200008B5FAF795FD044A1378013BDBB2137015
:10563000FAF792FD08BD00BF683300202DE9F04F56
:1056400085B0DDF83CE0109F17F0400F644D654CCD
:1056500014BFAC46A44617F0100F18BF27F001077F
:1056600017F0010F14BF4FF030084FF0200817F06B
:10567000020F14D0002A0ADB17F0040F2BD117F009
:10568000080F0CBF4FF000094FF0200909E052420B
:105690004FF02D096E460024DFF84CB128E04FF0A2
:1056A0000009002AF6D130238DF80030012423466A
:1056B0007445B8BF73460E9AD61A17F0110F51D120
:1056C000B9F1000F32D0002E28DDA6F1020C012E18
:1056D00032DC664623E04FF02B09E2E702F00F05CB
:1056E000120901341CF8055006F8015B002ADED0CF
:1056F0000A2BF3D1ABFB02A5ED08AA4605EB850505
:10570000A2EB45055246ECE716463FE0034648E06B
:105710001A4657E01A4655E010465DE0013E8842C1
:1057200038BF80F80090013E01301EE006F1FF3CDA
:10573000002ED8BF664618DD02464FF0200A461CF0
:105740006644914288BF82F800A00132B51A002D4C
:10575000F7DC0CF1FF322CEAEC7CA2EB0C060CF12E
:10576000010C6044B9F1000FD9D117F0100F0DD121
:10577000721E002EC8DD8219814288BF80F8008029
:1057800001309042F8D110464FF0FF369C42BDDA0E
:105790001B1B03443022814288BF027001309842B3
:1057A000F9D1002CB4DDBEF1000FB3D004AA151955
:1057B000113D1A19994284BF287818700133013DB0
:1057C0009A42F7D1002EA7DD90192023914288BF7D
:1057D000137001329042F9D105B0BDE8F08F00BFDF
:1057E000D0AF0008E4AF0008CDCCCCCC70B4032A15
:1057F00005D910F0030F10D0541E034602E00346F3
:10580000541E2AB1621C1A4403F8011B9342FBD1B7
:1058100070BC70472B463246F2E7CCB244EA04240F
:1058200044EA04440F2A27D900F11003A2F110051D
:105830002E0925F00F050544203543F8104C43F898
:105840000C4C43F8084C43F8044C1033AB42F4D1F1
:10585000751C00EB051502F00F0612F00C0FD9D0E5
:10586000331F23F0030304332B4445F8044B9D42BC
:10587000FBD106F00302C3E705461646F0E7F0B495
:1058800014460F2A06D940EA010313F0030F0DD086
:10589000034600E003463CB1013B0C4411F8012BE8
:1058A00003F8012F8C42F9D1F0BC704701F11004CC
:1058B00000F11005A2F11006330901F1200726F0CE
:1058C0000F06374454F8106C45F8106C54F80C6C03
:1058D00045F80C6C54F8086C45F8086C54F8046CE6
:1058E00045F8046C10341035BC42EBD102F00F04C3
:1058F000013301EB031100EB031312F00C0FCAD0BC
:105900001D1F043C4FEA940C24F003041C440E4673
:1059100056F8047B45F8047FA542F9D10CF1010447
:1059200001EB840103EB840302F00304B3E710B43A
:1059300088420AD83AB1431E8C1811F8012B03F89B
:10594000012F8C42F9D110BC70478B188342F1D9DA
:105950008418002AF7D0224613F8014D02F8014DB1
:105960009942F9D1EFE7AAB130B4144601390346A0
:105970001D4611F8012F03F8012B1AB1013CF7D194
:1059800030BC7047012CFBD02C4403F8012B9C4207
:10599000FBD1F5E77047037833B1034613F8012FC5
:1059A000002AFBD1181A70470346FBE72DE9F04F98
:1059B00089B0814605919A4610EB010803D3C34391
:1059C00005934FF0FF381378002B00F082814E468C
:1059D0004FF0200BCDF8189039E1002502E045F09A
:1059E00010052246541C53782D2BF8D02B2B08D0B1
:1059F000202B09D0232B0AD0302B0BD145F00105E9
:105A0000EFE745F00405ECE745F00805E9E745F068
:105A10002005E6E71946A3F13000092840D92A2BD2
:105A20004BD04FF0FF3723782E2B4FD04FF0FF395C
:105A3000217801F0FB03682B0CBF0134002123788F
:105A4000252B00F0E980A3F15802D2B2202A00F2FF
:105A50000B81583B202B00F20781DFE813F0E300B5
:105A60000501050105010501050105010501050106
:105A7000050105015A0001010501050105010501A6
:105A80000101050105010501050105011601CA0015
:105A900005010501840005011401050105015800F7
:105AA000002707EB870701EB4707303F14F8011F7A
:105AB000A1F13003092BF4D9B5E7941C5AF8047B03
:105AC000002FB0DA7F4245F01005ACE7611C637827
:105AD0001A46A3F13000092805D92A2B11D00C460B
